{
  "contractName": "RBACSC",
  "abi": [
    {
      "inputs": [
        {
          "internalType": "string",
          "name": "enterOrganizationName",
          "type": "string"
        }
      ],
      "stateMutability": "nonpayable",
      "type": "constructor"
    },
    {
      "inputs": [],
      "name": "AccessControlBadConfirmation",
      "type": "error"
    },
    {
      "inputs": [
        {
          "internalType": "address",
          "name": "account",
          "type": "address"
        },
        {
          "internalType": "bytes32",
          "name": "neededRole",
          "type": "bytes32"
        }
      ],
      "name": "AccessControlUnauthorizedAccount",
      "type": "error"
    },
    {
      "inputs": [
        {
          "internalType": "address",
          "name": "owner",
          "type": "address"
        }
      ],
      "name": "OwnableInvalidOwner",
      "type": "error"
    },
    {
      "inputs": [
        {
          "internalType": "address",
          "name": "account",
          "type": "address"
        }
      ],
      "name": "OwnableUnauthorizedAccount",
      "type": "error"
    },
    {
      "anonymous": false,
      "inputs": [
        {
          "indexed": true,
          "internalType": "address",
          "name": "previousOwner",
          "type": "address"
        },
        {
          "indexed": true,
          "internalType": "address",
          "name": "newOwner",
          "type": "address"
        }
      ],
      "name": "OwnershipTransferred",
      "type": "event"
    },
    {
      "anonymous": false,
      "inputs": [
        {
          "indexed": true,
          "internalType": "bytes32",
          "name": "role",
          "type": "bytes32"
        },
        {
          "indexed": true,
          "internalType": "bytes32",
          "name": "previousAdminRole",
          "type": "bytes32"
        },
        {
          "indexed": true,
          "internalType": "bytes32",
          "name": "newAdminRole",
          "type": "bytes32"
        }
      ],
      "name": "RoleAdminChanged",
      "type": "event"
    },
    {
      "anonymous": false,
      "inputs": [
        {
          "indexed": true,
          "internalType": "bytes32",
          "name": "role",
          "type": "bytes32"
        },
        {
          "indexed": true,
          "internalType": "address",
          "name": "account",
          "type": "address"
        },
        {
          "indexed": true,
          "internalType": "address",
          "name": "sender",
          "type": "address"
        }
      ],
      "name": "RoleGranted",
      "type": "event"
    },
    {
      "anonymous": false,
      "inputs": [
        {
          "indexed": true,
          "internalType": "bytes32",
          "name": "role",
          "type": "bytes32"
        },
        {
          "indexed": true,
          "internalType": "address",
          "name": "account",
          "type": "address"
        },
        {
          "indexed": true,
          "internalType": "address",
          "name": "sender",
          "type": "address"
        }
      ],
      "name": "RoleRevoked",
      "type": "event"
    },
    {
      "inputs": [],
      "name": "DEFAULT_ADMIN_ROLE",
      "outputs": [
        {
          "internalType": "bytes32",
          "name": "",
          "type": "bytes32"
        }
      ],
      "stateMutability": "view",
      "type": "function"
    },
    {
      "inputs": [],
      "name": "USER_ROLE",
      "outputs": [
        {
          "internalType": "bytes32",
          "name": "",
          "type": "bytes32"
        }
      ],
      "stateMutability": "view",
      "type": "function"
    },
    {
      "inputs": [
        {
          "internalType": "uint256",
          "name": "",
          "type": "uint256"
        }
      ],
      "name": "endorseeAccounts",
      "outputs": [
        {
          "internalType": "address",
          "name": "",
          "type": "address"
        }
      ],
      "stateMutability": "view",
      "type": "function"
    },
    {
      "inputs": [
        {
          "internalType": "address",
          "name": "",
          "type": "address"
        }
      ],
      "name": "endorseesAll",
      "outputs": [
        {
          "internalType": "address",
          "name": "endorser",
          "type": "address"
        },
        {
          "internalType": "string",
          "name": "notes",
          "type": "string"
        },
        {
          "internalType": "uint256",
          "name": "endorseeSince",
          "type": "uint256"
        },
        {
          "internalType": "uint256",
          "name": "endorseeIndex",
          "type": "uint256"
        }
      ],
      "stateMutability": "view",
      "type": "function"
    },
    {
      "inputs": [
        {
          "internalType": "bytes32",
          "name": "role",
          "type": "bytes32"
        }
      ],
      "name": "getRoleAdmin",
      "outputs": [
        {
          "internalType": "bytes32",
          "name": "",
          "type": "bytes32"
        }
      ],
      "stateMutability": "view",
      "type": "function"
    },
    {
      "inputs": [
        {
          "internalType": "bytes32",
          "name": "role",
          "type": "bytes32"
        },
        {
          "internalType": "address",
          "name": "account",
          "type": "address"
        }
      ],
      "name": "grantRole",
      "outputs": [],
      "stateMutability": "nonpayable",
      "type": "function"
    },
    {
      "inputs": [
        {
          "internalType": "bytes32",
          "name": "role",
          "type": "bytes32"
        },
        {
          "internalType": "address",
          "name": "account",
          "type": "address"
        }
      ],
      "name": "hasRole",
      "outputs": [
        {
          "internalType": "bool",
          "name": "",
          "type": "bool"
        }
      ],
      "stateMutability": "view",
      "type": "function"
    },
    {
      "inputs": [],
      "name": "indexEndorsee",
      "outputs": [
        {
          "internalType": "uint256",
          "name": "",
          "type": "uint256"
        }
      ],
      "stateMutability": "view",
      "type": "function"
    },
    {
      "inputs": [],
      "name": "indexUser",
      "outputs": [
        {
          "internalType": "uint256",
          "name": "",
          "type": "uint256"
        }
      ],
      "stateMutability": "view",
      "type": "function"
    },
    {
      "inputs": [],
      "name": "owner",
      "outputs": [
        {
          "internalType": "address",
          "name": "",
          "type": "address"
        }
      ],
      "stateMutability": "view",
      "type": "function"
    },
    {
      "inputs": [],
      "name": "ownerdetails",
      "outputs": [
        {
          "internalType": "address",
          "name": "ownerAddress",
          "type": "address"
        },
        {
          "internalType": "string",
          "name": "organizationName",
          "type": "string"
        },
        {
          "internalType": "uint256",
          "name": "dateCreated",
          "type": "uint256"
        }
      ],
      "stateMutability": "view",
      "type": "function"
    },
    {
      "inputs": [],
      "name": "renounceOwnership",
      "outputs": [],
      "stateMutability": "nonpayable",
      "type": "function"
    },
    {
      "inputs": [
        {
          "internalType": "bytes32",
          "name": "role",
          "type": "bytes32"
        },
        {
          "internalType": "address",
          "name": "callerConfirmation",
          "type": "address"
        }
      ],
      "name": "renounceRole",
      "outputs": [],
      "stateMutability": "nonpayable",
      "type": "function"
    },
    {
      "inputs": [
        {
          "internalType": "bytes32",
          "name": "role",
          "type": "bytes32"
        },
        {
          "internalType": "address",
          "name": "account",
          "type": "address"
        }
      ],
      "name": "revokeRole",
      "outputs": [],
      "stateMutability": "nonpayable",
      "type": "function"
    },
    {
      "inputs": [],
      "name": "status",
      "outputs": [
        {
          "internalType": "bool",
          "name": "",
          "type": "bool"
        }
      ],
      "stateMutability": "view",
      "type": "function"
    },
    {
      "inputs": [
        {
          "internalType": "bytes4",
          "name": "interfaceId",
          "type": "bytes4"
        }
      ],
      "name": "supportsInterface",
      "outputs": [
        {
          "internalType": "bool",
          "name": "",
          "type": "bool"
        }
      ],
      "stateMutability": "view",
      "type": "function"
    },
    {
      "inputs": [
        {
          "internalType": "address",
          "name": "newOwner",
          "type": "address"
        }
      ],
      "name": "transferOwnership",
      "outputs": [],
      "stateMutability": "nonpayable",
      "type": "function"
    },
    {
      "inputs": [
        {
          "internalType": "uint256",
          "name": "",
          "type": "uint256"
        }
      ],
      "name": "userAccounts",
      "outputs": [
        {
          "internalType": "address",
          "name": "",
          "type": "address"
        }
      ],
      "stateMutability": "view",
      "type": "function"
    },
    {
      "inputs": [
        {
          "internalType": "address",
          "name": "",
          "type": "address"
        }
      ],
      "name": "usersAll",
      "outputs": [
        {
          "internalType": "string",
          "name": "userRole",
          "type": "string"
        },
        {
          "internalType": "string",
          "name": "userNotes",
          "type": "string"
        },
        {
          "internalType": "uint256",
          "name": "userSince",
          "type": "uint256"
        },
        {
          "internalType": "uint256",
          "name": "userIndex",
          "type": "uint256"
        }
      ],
      "stateMutability": "view",
      "type": "function"
    },
    {
      "inputs": [
        {
          "internalType": "address",
          "name": "_userAddress",
          "type": "address"
        },
        {
          "internalType": "string",
          "name": "_userRole",
          "type": "string"
        },
        {
          "internalType": "string",
          "name": "_userNotes",
          "type": "string"
        }
      ],
      "name": "addUser",
      "outputs": [],
      "stateMutability": "nonpayable",
      "type": "function"
    },
    {
      "inputs": [
        {
          "internalType": "address",
          "name": "_userAddress",
          "type": "address"
        }
      ],
      "name": "removeUser",
      "outputs": [],
      "stateMutability": "nonpayable",
      "type": "function"
    },
    {
      "inputs": [
        {
          "internalType": "address",
          "name": "_endorseeAddress",
          "type": "address"
        },
        {
          "internalType": "string",
          "name": "_endorseeNotes",
          "type": "string"
        }
      ],
      "name": "addEndorsee",
      "outputs": [],
      "stateMutability": "nonpayable",
      "type": "function"
    },
    {
      "inputs": [
        {
          "internalType": "address",
          "name": "_endorseeAddress",
          "type": "address"
        }
      ],
      "name": "removeEndorsee",
      "outputs": [],
      "stateMutability": "nonpayable",
      "type": "function"
    },
    {
      "inputs": [
        {
          "internalType": "bool",
          "name": "_status",
          "type": "bool"
        }
      ],
      "name": "changeStatus",
      "outputs": [],
      "stateMutability": "nonpayable",
      "type": "function"
    },
    {
      "inputs": [],
      "name": "getOwner",
      "outputs": [
        {
          "internalType": "address",
          "name": "ownerAddress",
          "type": "address"
        },
        {
          "internalType": "string",
          "name": "organizationName",
          "type": "string"
        },
        {
          "internalType": "uint256",
          "name": "dateCreated",
          "type": "uint256"
        }
      ],
      "stateMutability": "view",
      "type": "function"
    },
    {
      "inputs": [],
      "name": "getUsers",
      "outputs": [
        {
          "internalType": "address[]",
          "name": "",
          "type": "address[]"
        }
      ],
      "stateMutability": "view",
      "type": "function"
    },
    {
      "inputs": [],
      "name": "getEndorsees",
      "outputs": [
        {
          "internalType": "address[]",
          "name": "",
          "type": "address[]"
        }
      ],
      "stateMutability": "view",
      "type": "function"
    },
    {
      "inputs": [],
      "name": "getNoOfUsers",
      "outputs": [
        {
          "internalType": "uint256",
          "name": "",
          "type": "uint256"
        }
      ],
      "stateMutability": "view",
      "type": "function"
    },
    {
      "inputs": [],
      "name": "getNoOfEndorsees",
      "outputs": [
        {
          "internalType": "uint256",
          "name": "",
          "type": "uint256"
        }
      ],
      "stateMutability": "view",
      "type": "function"
    }
  ],
  "bytecode": "0x608060405234801562000010575f80fd5b506040516200363d3803806200363d8339818101604052810190620000369190620003bc565b335f73ffffffffffffffffffffffffffffffffffffffff168173ffffffffffffffffffffffffffffffffffffffff1603620000aa575f6040517f1e4fbdf7000000000000000000000000000000000000000000000000000000008152600401620000a191906200044e565b60405180910390fd5b620000bb816200016060201b60201c565b503360065f015f6101000a81548173ffffffffffffffffffffffffffffffffffffffff021916908373ffffffffffffffffffffffffffffffffffffffff1602179055508060066001019081620001129190620006a0565b50426006600201819055505f6009819055505f600a819055506001600b5f6101000a81548160ff021916908315150217905550620001595f801b336200022160201b60201c565b5062000784565b5f805f9054906101000a900473ffffffffffffffffffffffffffffffffffffffff169050815f806101000a81548173ffffffffffffffffffffffffffffffffffffffff021916908373ffffffffffffffffffffffffffffffffffffffff1602179055508173ffffffffffffffffffffffffffffffffffffffff168173ffffffffffffffffffffffffffffffffffffffff167f8be0079c531659141344cd1fd0a4f28419497f9722a3daafe3b4186f6b6457e060405160405180910390a35050565b6200023382826200022160201b60201c565b5050565b5f604051905090565b5f80fd5b5f80fd5b5f80fd5b5f80fd5b5f601f19601f8301169050919050565b7f4e487b71000000000000000000000000000000000000000000000000000000005f52604160045260245ffd5b620002988262000250565b810181811067ffffffffffffffff82111715620002ba57620002b962000260565b5b80604052505050565b5f620002ce62000237565b9050620002dc82826200028d565b919050565b5f67ffffffffffffffff821115620002fe57620002fd62000260565b5b620003098262000250565b9050602081019050919050565b5f5b838110156200033557808201518184015260208101905062000318565b5f8484015250505050565b5f620003566200035084620002e1565b620002c3565b9050828152602081018484840111156200037557620003746200024c565b5b6200038284828562000316565b509392505050565b5f82601f830112620003a157620003a062000248565b5b8151620003b384826020860162000340565b91505092915050565b5f60208284031215620003d457620003d362000240565b5b5f82015167ffffffffffffffff811115620003f457620003f362000244565b5b62000402848285016200038a565b91505092915050565b5f73ffffffffffffffffffffffffffffffffffffffff82169050919050565b5f62000436826200040b565b9050919050565b62000448816200042a565b82525050565b5f602082019050620004635f8301846200043d565b92915050565b5f81519050919050565b7f4e487b71000000000000000000000000000000000000000000000000000000005f52602260045260245ffd5b5f6002820490506001821680620004b857607f821691505b602082108103620004ce57620004cd62000473565b5b50919050565b5f819050815f5260205f209050919050565b5f6020601f8301049050919050565b5f82821b905092915050565b5f60088302620005327fffffffffffffffffffffffffffffffffffffffffffffffffffffffffffffffff82620004f5565b6200053e8683620004f5565b95508019841693508086168417925050509392505050565b5f819050919050565b5f819050919050565b5f62000588620005826200057c8462000556565b6200055f565b62000556565b9050919050565b5f819050919050565b620005a38362000568565b620005bb620005b2826200058f565b84845462000501565b825550505050565b5f90565b620005d1620005c3565b620005de81848462000598565b505050565b5b818110156200060557620005f95f82620005c7565b600181019050620005e4565b5050565b601f82111562000654576200061e81620004d4565b6200062984620004e6565b8101602085101562000639578190505b620006516200064885620004e6565b830182620005e3565b50505b505050565b5f82821c905092915050565b5f620006765f198460080262000659565b1980831691505092915050565b5f62000690838362000665565b9150826002028217905092915050565b620006ab8262000469565b67ffffffffffffffff811115620006c757620006c662000260565b5b620006d38254620004a0565b620006e082828562000609565b5f60209050601f83116001811462000716575f841562000701578287015190505b6200070d858262000683565b8655506200077c565b601f1984166200072686620004d4565b5f5b828110156200074f5784890151825560018201915060208501945060208101905062000728565b868310156200076f57848901516200076b601f89168262000665565b8355505b6001600288020188555050505b505050505050565b612eab80620007925f395ff3fe608060405234801561000f575f80fd5b50600436106101cc575f3560e01c806361fa29961161010257806398575188116100a0578063d547741f1161006f578063d547741f14610514578063d7554a6814610530578063e9d4ba9b1461054c578063f2fde38b1461057c576101cc565b8063985751881461048b5780639b3de49b146104a7578063a217fddf146104c3578063cc7fa29c146104e1576101cc565b806388e2eed5116100dc57806388e2eed5146103ff578063893d20e81461041d5780638da5cb5b1461043d57806391d148541461045b576101cc565b806361fa2996146103a2578063715018a6146103c257806378be62a6146103cc576101cc565b806332b7e70e1161016f5780634a8a2abb116101495780634a8a2abb1461031a578063546c9eae146103385780635f6e216414610354578063616d505814610372576101cc565b806332b7e70e146102c457806334f5138e146102e057806336568abe146102fe576101cc565b80631f9306a0116101ab5780631f9306a01461023c578063200d2ed21461025a578063248a9ca3146102785780632f2ff15d146102a8576101cc565b8062ce8e3e146101d057806301ffc9a7146101ee578063131191611461021e575b5f80fd5b6101d8610598565b6040516101e591906120ca565b60405180910390f35b61020860048036038101906102039190612150565b610623565b6040516102159190612195565b60405180910390f35b61022661069c565b60405161023391906121c6565b60405180910390f35b6102446106c0565b60405161025191906121f7565b60405180910390f35b6102626106c6565b60405161026f9190612195565b60405180910390f35b610292600480360381019061028d919061223a565b6106d8565b60405161029f91906121c6565b60405180910390f35b6102c260048036038101906102bd919061228f565b6106f5565b005b6102de60048036038101906102d991906122cd565b610717565b005b6102e8610c03565b6040516102f591906121f7565b60405180910390f35b6103186004803603810190610313919061228f565b610c0f565b005b610322610c8a565b60405161032f91906121f7565b60405180910390f35b610352600480360381019061034d9190612434565b610c90565b005b61035c610f32565b60405161036991906121f7565b60405180910390f35b61038c600480360381019061038791906124b8565b610f3e565b60405161039991906124f2565b60405180910390f35b6103aa610f79565b6040516103b993929190612585565b60405180910390f35b6103ca611035565b005b6103e660048036038101906103e191906122cd565b611048565b6040516103f694939291906125c1565b60405180910390f35b610407611119565b60405161041491906120ca565b60405180910390f35b6104256111a4565b60405161043493929190612585565b60405180910390f35b61044561126c565b60405161045291906124f2565b60405180910390f35b6104756004803603810190610470919061228f565b611293565b6040516104829190612195565b60405180910390f35b6104a560048036038101906104a091906122cd565b6112f7565b005b6104c160048036038101906104bc9190612635565b611732565b005b6104cb611756565b6040516104d891906121c6565b60405180910390f35b6104fb60048036038101906104f691906122cd565b61175c565b60405161050b9493929190612660565b60405180910390f35b61052e6004803603810190610529919061228f565b611894565b005b61054a600480360381019061054591906126b1565b6118b6565b005b610566600480360381019061056191906124b8565b611adc565b60405161057391906124f2565b60405180910390f35b610596600480360381019061059191906122cd565b611b17565b005b6060600380548060200260200160405190810160405280929190818152602001828054801561061957602002820191905f5260205f20905b815f9054906101000a900473ffffffffffffffffffffffffffffffffffffffff1673ffffffffffffffffffffffffffffffffffffffff16815260200190600101908083116105d0575b5050505050905090565b5f7f7965db0b000000000000000000000000000000000000000000000000000000007bffffffffffffffffffffffffffffffffffffffffffffffffffffffff1916827bffffffffffffffffffffffffffffffffffffffffffffffffffffffff19161480610695575061069482611b9b565b5b9050919050565b7f14823911f2da1b49f045a0929a60b8c1f2a7fc8c06c7284ca3e8ab4e193a08c881565b600a5481565b600b5f9054906101000a900460ff1681565b5f60015f8381526020019081526020015f20600101549050919050565b6106fe826106d8565b61070781611c04565b6107118383611c18565b50505050565b60011515600b5f9054906101000a900460ff1615151461076c576040517f08c379a000000000000000000000000000000000000000000000000000000000815260040161076390612783565b60405180910390fd5b5f60045f8373ffffffffffffffffffffffffffffffffffffffff1673ffffffffffffffffffffffffffffffffffffffff1681526020019081526020015f2060020154036107ee576040517f08c379a00000000000000000000000000000000000000000000000000000000081526004016107e5906127eb565b60405180910390fd5b3373ffffffffffffffffffffffffffffffffffffffff1660045f8373ffffffffffffffffffffffffffffffffffffffff1673ffffffffffffffffffffffffffffffffffffffff1681526020019081526020015f205f015f9054906101000a900473ffffffffffffffffffffffffffffffffffffffff1673ffffffffffffffffffffffffffffffffffffffff16146108ba576040517f08c379a00000000000000000000000000000000000000000000000000000000081526004016108b190612879565b60405180910390fd5b600560045f8373ffffffffffffffffffffffffffffffffffffffff1673ffffffffffffffffffffffffffffffffffffffff1681526020019081526020015f20600301548154811061090e5761090d612897565b5b905f5260205f20015f6101000a81549073ffffffffffffffffffffffffffffffffffffffff02191690556005600160058054905061094c91906128f1565b8154811061095d5761095c612897565b5b905f5260205f20015f9054906101000a900473ffffffffffffffffffffffffffffffffffffffff16600560045f8473ffffffffffffffffffffffffffffffffffffffff1673ffffffffffffffffffffffffffffffffffffffff1681526020019081526020015f2060030154815481106109d9576109d8612897565b5b905f5260205f20015f6101000a81548173ffffffffffffffffffffffffffffffffffffffff021916908373ffffffffffffffffffffffffffffffffffffffff1602179055505f60045f600560045f8673ffffffffffffffffffffffffffffffffffffffff1673ffffffffffffffffffffffffffffffffffffffff1681526020019081526020015f206003015481548110610a7657610a75612897565b5b905f5260205f20015f9054906101000a900473ffffffffffffffffffffffffffffffffffffffff1673ffffffffffffffffffffffffffffffffffffffff1673ffffffffffffffffffffffffffffffffffffffff1681526020019081526020015f20905060045f8373ffffffffffffffffffffffffffffffffffffffff1673ffffffffffffffffffffffffffffffffffffffff1681526020019081526020015f206003015481600301819055506005805480610b3457610b33612924565b5b600190038181905f5260205f20015f6101000a81549073ffffffffffffffffffffffffffffffffffffffff0219169055905560045f8373ffffffffffffffffffffffffffffffffffffffff1673ffffffffffffffffffffffffffffffffffffffff1681526020019081526020015f205f8082015f6101000a81549073ffffffffffffffffffffffffffffffffffffffff0219169055600182015f610bd89190611f8b565b600282015f9055600382015f90555050600a5f815480929190610bfa90612951565b91905055505050565b5f600380549050905090565b610c17611d01565b73ffffffffffffffffffffffffffffffffffffffff168173ffffffffffffffffffffffffffffffffffffffff1614610c7b576040517f6697b23200000000000000000000000000000000000000000000000000000000815260040160405180910390fd5b610c858282611d08565b505050565b60095481565b60011515600b5f9054906101000a900460ff16151514610ce5576040517f08c379a0000000000000000000000000000000000000000000000000000000008152600401610cdc90612783565b60405180910390fd5b610d0f7f14823911f2da1b49f045a0929a60b8c1f2a7fc8c06c7284ca3e8ab4e193a08c833611293565b610d4e576040517f08c379a0000000000000000000000000000000000000000000000000000000008152600401610d45906129e8565b60405180910390fd5b5f60045f8473ffffffffffffffffffffffffffffffffffffffff1673ffffffffffffffffffffffffffffffffffffffff1681526020019081526020015f206002015414610dd0576040517f08c379a0000000000000000000000000000000000000000000000000000000008152600401610dc790612a50565b60405180910390fd5b60405180608001604052803373ffffffffffffffffffffffffffffffffffffffff168152602001828152602001428152602001600a5481525060045f8473ffffffffffffffffffffffffffffffffffffffff1673ffffffffffffffffffffffffffffffffffffffff1681526020019081526020015f205f820151815f015f6101000a81548173ffffffffffffffffffffffffffffffffffffffff021916908373ffffffffffffffffffffffffffffffffffffffff1602179055506020820151816001019081610e9f9190612c68565b506040820151816002015560608201518160030155905050600582908060018154018082558091505060019003905f5260205f20015f9091909190916101000a81548173ffffffffffffffffffffffffffffffffffffffff021916908373ffffffffffffffffffffffffffffffffffffffff160217905550600a5f815480929190610f2990612d37565b91905055505050565b5f600580549050905090565b60038181548110610f4d575f80fd5b905f5260205f20015f915054906101000a900473ffffffffffffffffffffffffffffffffffffffff1681565b6006805f015f9054906101000a900473ffffffffffffffffffffffffffffffffffffffff1690806001018054610fae90612a9b565b80601f0160208091040260200160405190810160405280929190818152602001828054610fda90612a9b565b80156110255780601f10610ffc57610100808354040283529160200191611025565b820191905f5260205f20905b81548152906001019060200180831161100857829003601f168201915b5050505050908060020154905083565b61103d611df2565b6110465f611e79565b565b6004602052805f5260405f205f91509050805f015f9054906101000a900473ffffffffffffffffffffffffffffffffffffffff169080600101805461108c90612a9b565b80601f01602080910402602001604051908101604052809291908181526020018280546110b890612a9b565b80156111035780601f106110da57610100808354040283529160200191611103565b820191905f5260205f20905b8154815290600101906020018083116110e657829003601f168201915b5050505050908060020154908060030154905084565b6060600580548060200260200160405190810160405280929190818152602001828054801561119a57602002820191905f5260205f20905b815f9054906101000a900473ffffffffffffffffffffffffffffffffffffffff1673ffffffffffffffffffffffffffffffffffffffff1681526020019060010190808311611151575b5050505050905090565b5f60605f60065f015f9054906101000a900473ffffffffffffffffffffffffffffffffffffffff1660066001016006600201548180546111e390612a9b565b80601f016020809104026020016040519081016040528092919081815260200182805461120f90612a9b565b801561125a5780601f106112315761010080835404028352916020019161125a565b820191905f5260205f20905b81548152906001019060200180831161123d57829003601f168201915b50505050509150925092509250909192565b5f805f9054906101000a900473ffffffffffffffffffffffffffffffffffffffff16905090565b5f60015f8481526020019081526020015f205f015f8373ffffffffffffffffffffffffffffffffffffffff1673ffffffffffffffffffffffffffffffffffffffff1681526020019081526020015f205f9054906101000a900460ff16905092915050565b6112ff611df2565b60011515600b5f9054906101000a900460ff16151514611354576040517f08c379a000000000000000000000000000000000000000000000000000000000815260040161134b90612783565b60405180910390fd5b5f60025f8373ffffffffffffffffffffffffffffffffffffffff1673ffffffffffffffffffffffffffffffffffffffff1681526020019081526020015f2060020154036113d6576040517f08c379a00000000000000000000000000000000000000000000000000000000081526004016113cd90612dc8565b60405180910390fd5b600360025f8373ffffffffffffffffffffffffffffffffffffffff1673ffffffffffffffffffffffffffffffffffffffff1681526020019081526020015f20600301548154811061142a57611429612897565b5b905f5260205f20015f6101000a81549073ffffffffffffffffffffffffffffffffffffffff02191690556003600160038054905061146891906128f1565b8154811061147957611478612897565b5b905f5260205f20015f9054906101000a900473ffffffffffffffffffffffffffffffffffffffff16600360025f8473ffffffffffffffffffffffffffffffffffffffff1673ffffffffffffffffffffffffffffffffffffffff1681526020019081526020015f2060030154815481106114f5576114f4612897565b5b905f5260205f20015f6101000a81548173ffffffffffffffffffffffffffffffffffffffff021916908373ffffffffffffffffffffffffffffffffffffffff1602179055505f60025f600360025f8673ffffffffffffffffffffffffffffffffffffffff1673ffffffffffffffffffffffffffffffffffffffff1681526020019081526020015f20600301548154811061159257611591612897565b5b905f5260205f20015f9054906101000a900473ffffffffffffffffffffffffffffffffffffffff1673ffffffffffffffffffffffffffffffffffffffff1673ffffffffffffffffffffffffffffffffffffffff1681526020019081526020015f20905060025f8373ffffffffffffffffffffffffffffffffffffffff1673ffffffffffffffffffffffffffffffffffffffff1681526020019081526020015f2060030154816003018190555060038054806116505761164f612924565b5b600190038181905f5260205f20015f6101000a81549073ffffffffffffffffffffffffffffffffffffffff0219169055905560025f8373ffffffffffffffffffffffffffffffffffffffff1673ffffffffffffffffffffffffffffffffffffffff1681526020019081526020015f205f8082015f6116ce9190611f8b565b600182015f6116dd9190611f8b565b600282015f9055600382015f9055505060095f8154809291906116ff90612951565b919050555061172e7f14823911f2da1b49f045a0929a60b8c1f2a7fc8c06c7284ca3e8ab4e193a08c883611894565b5050565b61173a611df2565b80600b5f6101000a81548160ff02191690831515021790555050565b5f801b81565b6002602052805f5260405f205f91509050805f01805461177b90612a9b565b80601f01602080910402602001604051908101604052809291908181526020018280546117a790612a9b565b80156117f25780601f106117c9576101008083540402835291602001916117f2565b820191905f5260205f20905b8154815290600101906020018083116117d557829003601f168201915b50505050509080600101805461180790612a9b565b80601f016020809104026020016040519081016040528092919081815260200182805461183390612a9b565b801561187e5780601f106118555761010080835404028352916020019161187e565b820191905f5260205f20905b81548152906001019060200180831161186157829003601f168201915b5050505050908060020154908060030154905084565b61189d826106d8565b6118a681611c04565b6118b08383611d08565b50505050565b6118be611df2565b60011515600b5f9054906101000a900460ff16151514611913576040517f08c379a000000000000000000000000000000000000000000000000000000000815260040161190a90612783565b60405180910390fd5b5f60025f8573ffffffffffffffffffffffffffffffffffffffff1673ffffffffffffffffffffffffffffffffffffffff1681526020019081526020015f206002015414611995576040517f08c379a000000000000000000000000000000000000000000000000000000000815260040161198c90612e30565b60405180910390fd5b604051806080016040528083815260200182815260200142815260200160095481525060025f8573ffffffffffffffffffffffffffffffffffffffff1673ffffffffffffffffffffffffffffffffffffffff1681526020019081526020015f205f820151815f019081611a089190612c68565b506020820151816001019081611a1e9190612c68565b506040820151816002015560608201518160030155905050600383908060018154018082558091505060019003905f5260205f20015f9091909190916101000a81548173ffffffffffffffffffffffffffffffffffffffff021916908373ffffffffffffffffffffffffffffffffffffffff16021790555060095f815480929190611aa890612d37565b9190505550611ad77f14823911f2da1b49f045a0929a60b8c1f2a7fc8c06c7284ca3e8ab4e193a08c8846106f5565b505050565b60058181548110611aeb575f80fd5b905f5260205f20015f915054906101000a900473ffffffffffffffffffffffffffffffffffffffff1681565b611b1f611df2565b5f73ffffffffffffffffffffffffffffffffffffffff168173ffffffffffffffffffffffffffffffffffffffff1603611b8f575f6040517f1e4fbdf7000000000000000000000000000000000000000000000000000000008152600401611b8691906124f2565b60405180910390fd5b611b9881611e79565b50565b5f7f01ffc9a7000000000000000000000000000000000000000000000000000000007bffffffffffffffffffffffffffffffffffffffffffffffffffffffff1916827bffffffffffffffffffffffffffffffffffffffffffffffffffffffff1916149050919050565b611c1581611c10611d01565b611f3a565b50565b5f611c238383611293565b611cf7576001805f8581526020019081526020015f205f015f8473ffffffffffffffffffffffffffffffffffffffff1673ffffffffffffffffffffffffffffffffffffffff1681526020019081526020015f205f6101000a81548160ff021916908315150217905550611c94611d01565b73ffffffffffffffffffffffffffffffffffffffff168273ffffffffffffffffffffffffffffffffffffffff16847f2f8788117e7eff1d82e926ec794901d17c78024a50270940304540a733656f0d60405160405180910390a460019050611cfb565b5f90505b92915050565b5f33905090565b5f611d138383611293565b15611de8575f60015f8581526020019081526020015f205f015f8473ffffffffffffffffffffffffffffffffffffffff1673ffffffffffffffffffffffffffffffffffffffff1681526020019081526020015f205f6101000a81548160ff021916908315150217905550611d85611d01565b73ffffffffffffffffffffffffffffffffffffffff168273ffffffffffffffffffffffffffffffffffffffff16847ff6391f5c32d9c69d2a47ea670b442974b53935d1edc7fd64eb21e047a839171b60405160405180910390a460019050611dec565b5f90505b92915050565b611dfa611d01565b73ffffffffffffffffffffffffffffffffffffffff16611e1861126c565b73ffffffffffffffffffffffffffffffffffffffff1614611e7757611e3b611d01565b6040517f118cdaa7000000000000000000000000000000000000000000000000000000008152600401611e6e91906124f2565b60405180910390fd5b565b5f805f9054906101000a900473ffffffffffffffffffffffffffffffffffffffff169050815f806101000a81548173ffffffffffffffffffffffffffffffffffffffff021916908373ffffffffffffffffffffffffffffffffffffffff1602179055508173ffffffffffffffffffffffffffffffffffffffff168173ffffffffffffffffffffffffffffffffffffffff167f8be0079c531659141344cd1fd0a4f28419497f9722a3daafe3b4186f6b6457e060405160405180910390a35050565b611f448282611293565b611f875780826040517fe2517d3f000000000000000000000000000000000000000000000000000000008152600401611f7e929190612e4e565b60405180910390fd5b5050565b508054611f9790612a9b565b5f825580601f10611fa85750611fc5565b601f0160209004905f5260205f2090810190611fc49190611fc8565b5b50565b5b80821115611fdf575f815f905550600101611fc9565b5090565b5f81519050919050565b5f82825260208201905092915050565b5f819050602082019050919050565b5f73ffffffffffffffffffffffffffffffffffffffff82169050919050565b5f6120358261200c565b9050919050565b6120458161202b565b82525050565b5f612056838361203c565b60208301905092915050565b5f602082019050919050565b5f61207882611fe3565b6120828185611fed565b935061208d83611ffd565b805f5b838110156120bd5781516120a4888261204b565b97506120af83612062565b925050600181019050612090565b5085935050505092915050565b5f6020820190508181035f8301526120e2818461206e565b905092915050565b5f604051905090565b5f80fd5b5f80fd5b5f7fffffffff0000000000000000000000000000000000000000000000000000000082169050919050565b61212f816120fb565b8114612139575f80fd5b50565b5f8135905061214a81612126565b92915050565b5f60208284031215612165576121646120f3565b5b5f6121728482850161213c565b91505092915050565b5f8115159050919050565b61218f8161217b565b82525050565b5f6020820190506121a85f830184612186565b92915050565b5f819050919050565b6121c0816121ae565b82525050565b5f6020820190506121d95f8301846121b7565b92915050565b5f819050919050565b6121f1816121df565b82525050565b5f60208201905061220a5f8301846121e8565b92915050565b612219816121ae565b8114612223575f80fd5b50565b5f8135905061223481612210565b92915050565b5f6020828403121561224f5761224e6120f3565b5b5f61225c84828501612226565b91505092915050565b61226e8161202b565b8114612278575f80fd5b50565b5f8135905061228981612265565b92915050565b5f80604083850312156122a5576122a46120f3565b5b5f6122b285828601612226565b92505060206122c38582860161227b565b9150509250929050565b5f602082840312156122e2576122e16120f3565b5b5f6122ef8482850161227b565b91505092915050565b5f80fd5b5f80fd5b5f601f19601f8301169050919050565b7f4e487b71000000000000000000000000000000000000000000000000000000005f52604160045260245ffd5b61234682612300565b810181811067ffffffffffffffff8211171561236557612364612310565b5b80604052505050565b5f6123776120ea565b9050612383828261233d565b919050565b5f67ffffffffffffffff8211156123a2576123a1612310565b5b6123ab82612300565b9050602081019050919050565b828183375f83830152505050565b5f6123d86123d384612388565b61236e565b9050828152602081018484840111156123f4576123f36122fc565b5b6123ff8482856123b8565b509392505050565b5f82601f83011261241b5761241a6122f8565b5b813561242b8482602086016123c6565b91505092915050565b5f806040838503121561244a576124496120f3565b5b5f6124578582860161227b565b925050602083013567ffffffffffffffff811115612478576124776120f7565b5b61248485828601612407565b9150509250929050565b612497816121df565b81146124a1575f80fd5b50565b5f813590506124b28161248e565b92915050565b5f602082840312156124cd576124cc6120f3565b5b5f6124da848285016124a4565b91505092915050565b6124ec8161202b565b82525050565b5f6020820190506125055f8301846124e3565b92915050565b5f81519050919050565b5f82825260208201905092915050565b5f5b83811015612542578082015181840152602081019050612527565b5f8484015250505050565b5f6125578261250b565b6125618185612515565b9350612571818560208601612525565b61257a81612300565b840191505092915050565b5f6060820190506125985f8301866124e3565b81810360208301526125aa818561254d565b90506125b960408301846121e8565b949350505050565b5f6080820190506125d45f8301876124e3565b81810360208301526125e6818661254d565b90506125f560408301856121e8565b61260260608301846121e8565b95945050505050565b6126148161217b565b811461261e575f80fd5b50565b5f8135905061262f8161260b565b92915050565b5f6020828403121561264a576126496120f3565b5b5f61265784828501612621565b91505092915050565b5f6080820190508181035f830152612678818761254d565b9050818103602083015261268c818661254d565b905061269b60408301856121e8565b6126a860608301846121e8565b95945050505050565b5f805f606084860312156126c8576126c76120f3565b5b5f6126d58682870161227b565b935050602084013567ffffffffffffffff8111156126f6576126f56120f7565b5b61270286828701612407565b925050604084013567ffffffffffffffff811115612723576127226120f7565b5b61272f86828701612407565b9150509250925092565b7f536d61727420636f6e7472616374206973206e6f7420616374697665000000005f82015250565b5f61276d601c83612515565b915061277882612739565b602082019050919050565b5f6020820190508181035f83015261279a81612761565b9050919050565b7f456e646f7273656520646f6573206e6f742065786973740000000000000000005f82015250565b5f6127d5601783612515565b91506127e0826127a1565b602082019050919050565b5f6020820190508181035f830152612802816127c9565b9050919050565b7f4f6e6c792074686520656e646f727365722063616e2072656d6f766520616e205f8201527f656e646f72736565000000000000000000000000000000000000000000000000602082015250565b5f612863602883612515565b915061286e82612809565b604082019050919050565b5f6020820190508181035f83015261289081612857565b9050919050565b7f4e487b71000000000000000000000000000000000000000000000000000000005f52603260045260245ffd5b7f4e487b71000000000000000000000000000000000000000000000000000000005f52601160045260245ffd5b5f6128fb826121df565b9150612906836121df565b925082820390508181111561291e5761291d6128c4565b5b92915050565b7f4e487b71000000000000000000000000000000000000000000000000000000005f52603160045260245ffd5b5f61295b826121df565b91505f820361296d5761296c6128c4565b5b600182039050919050565b7f43616c6c657220646f6573206e6f74206861766520746865205553455220726f5f8201527f6c65000000000000000000000000000000000000000000000000000000000000602082015250565b5f6129d2602283612515565b91506129dd82612978565b604082019050919050565b5f6020820190508181035f8301526129ff816129c6565b9050919050565b7f456e646f7273656520616c7265616479206578697374730000000000000000005f82015250565b5f612a3a601783612515565b9150612a4582612a06565b602082019050919050565b5f6020820190508181035f830152612a6781612a2e565b9050919050565b7f4e487b71000000000000000000000000000000000000000000000000000000005f52602260045260245ffd5b5f6002820490506001821680612ab257607f821691505b602082108103612ac557612ac4612a6e565b5b50919050565b5f819050815f5260205f209050919050565b5f6020601f8301049050919050565b5f82821b905092915050565b5f60088302612b277fffffffffffffffffffffffffffffffffffffffffffffffffffffffffffffffff82612aec565b612b318683612aec565b95508019841693508086168417925050509392505050565b5f819050919050565b5f612b6c612b67612b62846121df565b612b49565b6121df565b9050919050565b5f819050919050565b612b8583612b52565b612b99612b9182612b73565b848454612af8565b825550505050565b5f90565b612bad612ba1565b612bb8818484612b7c565b505050565b5b81811015612bdb57612bd05f82612ba5565b600181019050612bbe565b5050565b601f821115612c2057612bf181612acb565b612bfa84612add565b81016020851015612c09578190505b612c1d612c1585612add565b830182612bbd565b50505b505050565b5f82821c905092915050565b5f612c405f1984600802612c25565b1980831691505092915050565b5f612c588383612c31565b9150826002028217905092915050565b612c718261250b565b67ffffffffffffffff811115612c8a57612c89612310565b5b612c948254612a9b565b612c9f828285612bdf565b5f60209050601f831160018114612cd0575f8415612cbe578287015190505b612cc88582612c4d565b865550612d2f565b601f198416612cde86612acb565b5f5b82811015612d0557848901518255600182019150602085019450602081019050612ce0565b86831015612d225784890151612d1e601f891682612c31565b8355505b6001600288020188555050505b505050505050565b5f612d41826121df565b91507fffffffffffffffffffffffffffffffffffffffffffffffffffffffffffffffff8203612d7357612d726128c4565b5b600182019050919050565b7f5573657220646f6573206e6f74206578697374000000000000000000000000005f82015250565b5f612db2601383612515565b9150612dbd82612d7e565b602082019050919050565b5f6020820190508181035f830152612ddf81612da6565b9050919050565b7f5573657220616c726561647920657869737473000000000000000000000000005f82015250565b5f612e1a601383612515565b9150612e2582612de6565b602082019050919050565b5f6020820190508181035f830152612e4781612e0e565b9050919050565b5f604082019050612e615f8301856124e3565b612e6e60208301846121b7565b939250505056fea2646970667358221220e1daf98664233cdd55c14199f9cd817dd98730f8a5d85697af9328bdac3edad964736f6c63430008150033",
  "immutableReferences": {},
  "source": "// SPDX-License-Identifier: MIT\r\npragma solidity ^0.8.0;\r\n\r\nimport \"@openzeppelin/contracts/access/Ownable.sol\";\r\nimport \"@openzeppelin/contracts/access/AccessControl.sol\";\r\n\r\nbytes32 constant DEFAULT_ADMIN_ROLE = 0x00;\r\n\r\ncontract RBACSC is Ownable, AccessControl {\r\n\r\n    mapping (address => UserStruct) public usersAll;\r\n    address[] public userAccounts;\r\n    mapping (address => EndorseStruct) public endorseesAll;\r\n    address[] public endorseeAccounts;\r\n    OwnerStruct public ownerdetails;\r\n    uint public indexUser;\r\n    uint public indexEndorsee;\r\n    bool public status;\r\n    bytes32 public constant USER_ROLE = keccak256(\"USER_ROLE\");\r\n//    bytes32 public constant ENDORSEE_ROLE = keccak256(\"ENDORSEE_ROLE\");\r\n\r\n    constructor(string memory enterOrganizationName) Ownable(msg.sender) {\r\n        ownerdetails.ownerAddress = msg.sender;\r\n        ownerdetails.organizationName = enterOrganizationName;\r\n        ownerdetails.dateCreated = block.timestamp;\r\n        indexUser = 0;\r\n        indexEndorsee = 0;\r\n        status = true;\r\n        _setupRole(DEFAULT_ADMIN_ROLE, msg.sender);\r\n      //  addUser(0x98c3327531eB76995D120bA027e46D35Ed79dbf1, \"a\", \"b\");\r\n       // addUser(0xF209e4a4b23Ca181eF9aB9f247793e1173b23634, \"d\", \"c\");\r\n    }\r\n\r\n    struct OwnerStruct {\r\n        address ownerAddress;\r\n        string organizationName;\r\n        uint dateCreated;\r\n    }\r\n\r\n    struct UserStruct {\r\n        string userRole;\r\n        string userNotes;\r\n        uint userSince;\r\n        uint userIndex;\r\n    }\r\n\r\n    struct EndorseStruct {\r\n        address endorser;\r\n        string notes;\r\n        uint endorseeSince;\r\n        uint endorseeIndex;\r\n    }\r\n\r\n    modifier contractActive {\r\n        require(status == true, \"Smart contract is not active\");\r\n        _;\r\n    }\r\n\r\n    function addUser(address _userAddress, string memory _userRole, string memory _userNotes) public onlyOwner contractActive {\r\n        require(usersAll[_userAddress].userSince == 0, \"User already exists\");\r\n        usersAll[_userAddress] = UserStruct(\r\n            {\r\n                userRole: _userRole,\r\n                userNotes: _userNotes,\r\n                userSince: block.timestamp,\r\n                userIndex: indexUser\r\n            });\r\n        userAccounts.push(_userAddress);\r\n        indexUser++;\r\n        grantRole(USER_ROLE, _userAddress);\r\n    }\r\n\r\n    function removeUser(address _userAddress) public onlyOwner contractActive {\r\n        require(usersAll[_userAddress].userSince != 0, \"User does not exist\");\r\n        delete userAccounts[usersAll[_userAddress].userIndex];\r\n        userAccounts[usersAll[_userAddress].userIndex] = userAccounts[userAccounts.length - 1];\r\n        UserStruct storage user = usersAll[userAccounts[usersAll[_userAddress].userIndex]];\r\n        user.userIndex = usersAll[_userAddress].userIndex;\r\n        userAccounts.pop();\r\n        delete usersAll[_userAddress];\r\n        indexUser--;\r\n        revokeRole(USER_ROLE, _userAddress);\r\n    }\r\n\r\n    function addEndorsee(address _endorseeAddress, string memory _endorseeNotes) public contractActive {\r\n        require(hasRole(USER_ROLE, msg.sender), \"Caller does not have the USER role\");\r\n        require(endorseesAll[_endorseeAddress].endorseeSince == 0, \"Endorsee already exists\");\r\n        endorseesAll[_endorseeAddress] = EndorseStruct(\r\n            {\r\n                endorser: msg.sender,\r\n                notes: _endorseeNotes,\r\n                endorseeSince: block.timestamp,\r\n                endorseeIndex: indexEndorsee\r\n            });\r\n        endorseeAccounts.push(_endorseeAddress);\r\n        indexEndorsee++;\r\n    }\r\n\r\n    function removeEndorsee(address _endorseeAddress) public contractActive {\r\n        require(endorseesAll[_endorseeAddress].endorseeSince != 0, \"Endorsee does not exist\");\r\n        require(endorseesAll[_endorseeAddress].endorser == msg.sender, \"Only the endorser can remove an endorsee\");\r\n        delete endorseeAccounts[endorseesAll[_endorseeAddress].endorseeIndex];\r\n        endorseeAccounts[endorseesAll[_endorseeAddress].endorseeIndex] = endorseeAccounts[endorseeAccounts.length - 1];\r\n        EndorseStruct storage endorsee = endorseesAll[endorseeAccounts[endorseesAll[_endorseeAddress].endorseeIndex]];\r\n        endorsee.endorseeIndex = endorseesAll[_endorseeAddress].endorseeIndex;\r\n        endorseeAccounts.pop();\r\n        delete endorseesAll[_endorseeAddress];\r\n        indexEndorsee--;\r\n    }\r\n\r\n    function changeStatus(bool _status) public onlyOwner {\r\n       status = _status;\r\n    }\r\n\r\n    function getOwner() public view returns (address ownerAddress, string memory organizationName, uint dateCreated){\r\n        return(ownerdetails.ownerAddress, ownerdetails.organizationName, ownerdetails.dateCreated);\r\n    }\r\n\r\n    function getUsers() public view returns (address[] memory){\r\n        return userAccounts;\r\n    }\r\n\r\n    function getEndorsees() public view returns (address[] memory){\r\n        return endorseeAccounts;\r\n    }\r\n\r\n    function getNoOfUsers() public view returns (uint){\r\n        return userAccounts.length;\r\n    }\r\n\r\n    function getNoOfEndorsees() public view returns (uint){\r\n        return endorseeAccounts.length;\r\n    }\r\n\r\n    function _setupRole(bytes32 role, address account) internal {\r\n        _setupRole(role, account);\r\n    }\r\n}",
  "sourcePath": "C:\\Users\\Arpit\\OneDrive\\Desktop\\Solidity\\jpmcruz\\contracts\\RBAC.sol",
  "compiler": {
    "name": "solc",
    "version": "0.8.21+commit.d9974bed.Emscripten.clang"
  },
  "schemaVersion": "3.4.16",
  "updatedAt": "2024-05-24T12:47:46.580Z",
  "devdoc": {
    "errors": {
      "AccessControlBadConfirmation()": [
        {
          "details": "The caller of a function is not the expected one. NOTE: Don't confuse with {AccessControlUnauthorizedAccount}."
        }
      ],
      "AccessControlUnauthorizedAccount(address,bytes32)": [
        {
          "details": "The `account` is missing a role."
        }
      ],
      "OwnableInvalidOwner(address)": [
        {
          "details": "The owner is not a valid owner account. (eg. `address(0)`)"
        }
      ],
      "OwnableUnauthorizedAccount(address)": [
        {
          "details": "The caller account is not authorized to perform an operation."
        }
      ]
    },
    "events": {
      "RoleAdminChanged(bytes32,bytes32,bytes32)": {
        "details": "Emitted when `newAdminRole` is set as ``role``'s admin role, replacing `previousAdminRole` `DEFAULT_ADMIN_ROLE` is the starting admin for all roles, despite {RoleAdminChanged} not being emitted signaling this."
      },
      "RoleGranted(bytes32,address,address)": {
        "details": "Emitted when `account` is granted `role`. `sender` is the account that originated the contract call, an admin role bearer except when using {AccessControl-_setupRole}."
      },
      "RoleRevoked(bytes32,address,address)": {
        "details": "Emitted when `account` is revoked `role`. `sender` is the account that originated the contract call:   - if using `revokeRole`, it is the admin role bearer   - if using `renounceRole`, it is the role bearer (i.e. `account`)"
      }
    },
    "kind": "dev",
    "methods": {
      "getRoleAdmin(bytes32)": {
        "details": "Returns the admin role that controls `role`. See {grantRole} and {revokeRole}. To change a role's admin, use {_setRoleAdmin}."
      },
      "grantRole(bytes32,address)": {
        "details": "Grants `role` to `account`. If `account` had not been already granted `role`, emits a {RoleGranted} event. Requirements: - the caller must have ``role``'s admin role. May emit a {RoleGranted} event."
      },
      "hasRole(bytes32,address)": {
        "details": "Returns `true` if `account` has been granted `role`."
      },
      "owner()": {
        "details": "Returns the address of the current owner."
      },
      "renounceOwnership()": {
        "details": "Leaves the contract without owner. It will not be possible to call `onlyOwner` functions. Can only be called by the current owner. NOTE: Renouncing ownership will leave the contract without an owner, thereby disabling any functionality that is only available to the owner."
      },
      "renounceRole(bytes32,address)": {
        "details": "Revokes `role` from the calling account. Roles are often managed via {grantRole} and {revokeRole}: this function's purpose is to provide a mechanism for accounts to lose their privileges if they are compromised (such as when a trusted device is misplaced). If the calling account had been revoked `role`, emits a {RoleRevoked} event. Requirements: - the caller must be `callerConfirmation`. May emit a {RoleRevoked} event."
      },
      "revokeRole(bytes32,address)": {
        "details": "Revokes `role` from `account`. If `account` had been granted `role`, emits a {RoleRevoked} event. Requirements: - the caller must have ``role``'s admin role. May emit a {RoleRevoked} event."
      },
      "supportsInterface(bytes4)": {
        "details": "See {IERC165-supportsInterface}."
      },
      "transferOwnership(address)": {
        "details": "Transfers ownership of the contract to a new account (`newOwner`). Can only be called by the current owner."
      }
    },
    "version": 1
  },
  "userdoc": {
    "kind": "user",
    "methods": {},
    "version": 1
  }
}